{
	"_format": "hh-sol-artifact-1",
	"contractName": "MyEpicNFT",
	"sourceName": "contracts/MyEpicNFT.sol",
	"abi": [
		{
			"inputs": [],
			"stateMutability": "nonpayable",
			"type": "constructor"
		},
		{
			"anonymous": false,
			"inputs": [
				{
					"indexed": true,
					"internalType": "address",
					"name": "owner",
					"type": "address"
				},
				{
					"indexed": true,
					"internalType": "address",
					"name": "approved",
					"type": "address"
				},
				{
					"indexed": true,
					"internalType": "uint256",
					"name": "tokenId",
					"type": "uint256"
				}
			],
			"name": "Approval",
			"type": "event"
		},
		{
			"anonymous": false,
			"inputs": [
				{
					"indexed": true,
					"internalType": "address",
					"name": "owner",
					"type": "address"
				},
				{
					"indexed": true,
					"internalType": "address",
					"name": "operator",
					"type": "address"
				},
				{
					"indexed": false,
					"internalType": "bool",
					"name": "approved",
					"type": "bool"
				}
			],
			"name": "ApprovalForAll",
			"type": "event"
		},
		{
			"anonymous": false,
			"inputs": [
				{
					"indexed": false,
					"internalType": "address",
					"name": "sender",
					"type": "address"
				},
				{
					"indexed": false,
					"internalType": "uint256",
					"name": "tokenId",
					"type": "uint256"
				}
			],
			"name": "NewEpicNFTMinted",
			"type": "event"
		},
		{
			"anonymous": false,
			"inputs": [
				{
					"indexed": true,
					"internalType": "address",
					"name": "from",
					"type": "address"
				},
				{
					"indexed": true,
					"internalType": "address",
					"name": "to",
					"type": "address"
				},
				{
					"indexed": true,
					"internalType": "uint256",
					"name": "tokenId",
					"type": "uint256"
				}
			],
			"name": "Transfer",
			"type": "event"
		},
		{
			"inputs": [
				{
					"internalType": "address",
					"name": "to",
					"type": "address"
				},
				{
					"internalType": "uint256",
					"name": "tokenId",
					"type": "uint256"
				}
			],
			"name": "approve",
			"outputs": [],
			"stateMutability": "nonpayable",
			"type": "function"
		},
		{
			"inputs": [
				{
					"internalType": "address",
					"name": "owner",
					"type": "address"
				}
			],
			"name": "balanceOf",
			"outputs": [
				{
					"internalType": "uint256",
					"name": "",
					"type": "uint256"
				}
			],
			"stateMutability": "view",
			"type": "function"
		},
		{
			"inputs": [
				{
					"internalType": "uint256",
					"name": "tokenId",
					"type": "uint256"
				}
			],
			"name": "getApproved",
			"outputs": [
				{
					"internalType": "address",
					"name": "",
					"type": "address"
				}
			],
			"stateMutability": "view",
			"type": "function"
		},
		{
			"inputs": [],
			"name": "getTotalNFTMinted",
			"outputs": [
				{
					"internalType": "uint256",
					"name": "",
					"type": "uint256"
				}
			],
			"stateMutability": "view",
			"type": "function"
		},
		{
			"inputs": [
				{
					"internalType": "address",
					"name": "owner",
					"type": "address"
				},
				{
					"internalType": "address",
					"name": "operator",
					"type": "address"
				}
			],
			"name": "isApprovedForAll",
			"outputs": [
				{
					"internalType": "bool",
					"name": "",
					"type": "bool"
				}
			],
			"stateMutability": "view",
			"type": "function"
		},
		{
			"inputs": [],
			"name": "makeAnEpicNFT",
			"outputs": [],
			"stateMutability": "nonpayable",
			"type": "function"
		},
		{
			"inputs": [],
			"name": "name",
			"outputs": [
				{
					"internalType": "string",
					"name": "",
					"type": "string"
				}
			],
			"stateMutability": "view",
			"type": "function"
		},
		{
			"inputs": [
				{
					"internalType": "uint256",
					"name": "tokenId",
					"type": "uint256"
				}
			],
			"name": "ownerOf",
			"outputs": [
				{
					"internalType": "address",
					"name": "",
					"type": "address"
				}
			],
			"stateMutability": "view",
			"type": "function"
		},
		{
			"inputs": [
				{
					"internalType": "uint256",
					"name": "tokenId",
					"type": "uint256"
				}
			],
			"name": "pickRandomColor",
			"outputs": [
				{
					"internalType": "string",
					"name": "",
					"type": "string"
				}
			],
			"stateMutability": "view",
			"type": "function"
		},
		{
			"inputs": [
				{
					"internalType": "uint256",
					"name": "tokenId",
					"type": "uint256"
				}
			],
			"name": "pickRandomFirstWord",
			"outputs": [
				{
					"internalType": "string",
					"name": "",
					"type": "string"
				}
			],
			"stateMutability": "view",
			"type": "function"
		},
		{
			"inputs": [
				{
					"internalType": "uint256",
					"name": "tokenId",
					"type": "uint256"
				}
			],
			"name": "pickRandomSecondWord",
			"outputs": [
				{
					"internalType": "string",
					"name": "",
					"type": "string"
				}
			],
			"stateMutability": "view",
			"type": "function"
		},
		{
			"inputs": [
				{
					"internalType": "uint256",
					"name": "tokenId",
					"type": "uint256"
				}
			],
			"name": "pickRandomThirdWord",
			"outputs": [
				{
					"internalType": "string",
					"name": "",
					"type": "string"
				}
			],
			"stateMutability": "view",
			"type": "function"
		},
		{
			"inputs": [
				{
					"internalType": "address",
					"name": "from",
					"type": "address"
				},
				{
					"internalType": "address",
					"name": "to",
					"type": "address"
				},
				{
					"internalType": "uint256",
					"name": "tokenId",
					"type": "uint256"
				}
			],
			"name": "safeTransferFrom",
			"outputs": [],
			"stateMutability": "nonpayable",
			"type": "function"
		},
		{
			"inputs": [
				{
					"internalType": "address",
					"name": "from",
					"type": "address"
				},
				{
					"internalType": "address",
					"name": "to",
					"type": "address"
				},
				{
					"internalType": "uint256",
					"name": "tokenId",
					"type": "uint256"
				},
				{
					"internalType": "bytes",
					"name": "data",
					"type": "bytes"
				}
			],
			"name": "safeTransferFrom",
			"outputs": [],
			"stateMutability": "nonpayable",
			"type": "function"
		},
		{
			"inputs": [
				{
					"internalType": "address",
					"name": "operator",
					"type": "address"
				},
				{
					"internalType": "bool",
					"name": "approved",
					"type": "bool"
				}
			],
			"name": "setApprovalForAll",
			"outputs": [],
			"stateMutability": "nonpayable",
			"type": "function"
		},
		{
			"inputs": [
				{
					"internalType": "bytes4",
					"name": "interfaceId",
					"type": "bytes4"
				}
			],
			"name": "supportsInterface",
			"outputs": [
				{
					"internalType": "bool",
					"name": "",
					"type": "bool"
				}
			],
			"stateMutability": "view",
			"type": "function"
		},
		{
			"inputs": [],
			"name": "symbol",
			"outputs": [
				{
					"internalType": "string",
					"name": "",
					"type": "string"
				}
			],
			"stateMutability": "view",
			"type": "function"
		},
		{
			"inputs": [
				{
					"internalType": "uint256",
					"name": "tokenId",
					"type": "uint256"
				}
			],
			"name": "tokenURI",
			"outputs": [
				{
					"internalType": "string",
					"name": "",
					"type": "string"
				}
			],
			"stateMutability": "view",
			"type": "function"
		},
		{
			"inputs": [
				{
					"internalType": "address",
					"name": "from",
					"type": "address"
				},
				{
					"internalType": "address",
					"name": "to",
					"type": "address"
				},
				{
					"internalType": "uint256",
					"name": "tokenId",
					"type": "uint256"
				}
			],
			"name": "transferFrom",
			"outputs": [],
			"stateMutability": "nonpayable",
			"type": "function"
		}
	],
	"bytecode": "0x608060405260405180610100016040528060d381526020016200527760d39139600990816200002f9190620011c3565b506040518060800160405280605681526020016200534a60569139600a90816200005a9190620011c3565b506040518061010001604052806040518060400160405280600a81526020017f46616e746173746963200000000000000000000000000000000000000000000081525081526020016040518060400160405280600581526020017f457069632000000000000000000000000000000000000000000000000000000081525081526020016040518060400160405280600881526020017f4a61636b706f742000000000000000000000000000000000000000000000000081525081526020016040518060400160405280600981526020017f5465727269626c6520000000000000000000000000000000000000000000000081525081526020016040518060400160405280600681526020017f4372617a7920000000000000000000000000000000000000000000000000000081525081526020016040518060400160405280600581526020017f57696c642000000000000000000000000000000000000000000000000000000081525081526020016040518060400160405280600b81526020017f54657272696679696e672000000000000000000000000000000000000000000081525081526020016040518060400160405280600781526020017f53706f6f6b792000000000000000000000000000000000000000000000000000815250815250600b9060086200024f92919062000d9c565b506040518061010001604052806040518060400160405280600881526020017f4a61636b706f742000000000000000000000000000000000000000000000000081525081526020016040518060400160405280600881526020017f436869636b656e2000000000000000000000000000000000000000000000000081525081526020016040518060400160405280600681526020017f437572727920000000000000000000000000000000000000000000000000000081525081526020016040518060400160405280600a81526020017f4d696c6b7368616b65200000000000000000000000000000000000000000000081525081526020016040518060400160405280600681526020017f50697a7a6120000000000000000000000000000000000000000000000000000081525081526020016040518060400160405280600881526020017f43757063616b652000000000000000000000000000000000000000000000000081525081526020016040518060400160405280600981526020017f53616e647769636820000000000000000000000000000000000000000000000081525081526020016040518060400160405280600681526020017f53616c6164200000000000000000000000000000000000000000000000000000815250815250600c9060086200044492919062000d9c565b506040518061012001604052806040518060400160405280600881526020017f4a61636b706f742000000000000000000000000000000000000000000000000081525081526020016040518060400160405280600781526020017f4e617275746f200000000000000000000000000000000000000000000000000081525081526020016040518060400160405280600781526020017f536173756b65200000000000000000000000000000000000000000000000000081525081526020016040518060400160405280600781526020017f53616b757261200000000000000000000000000000000000000000000000000081525081526020016040518060400160405280600581526020017f476f6b752000000000000000000000000000000000000000000000000000000081525081526020016040518060400160405280600681526020017f476161726120000000000000000000000000000000000000000000000000000081525081526020016040518060400160405280600781526020017f4d696e61746f200000000000000000000000000000000000000000000000000081525081526020016040518060400160405280600881526020017f4b616b617368692000000000000000000000000000000000000000000000000081525081526020016040518060400160405280600781526020017f4d61646172612000000000000000000000000000000000000000000000000000815250815250600d9060096200067492919062000dfc565b50604051806102e001604052806040518060400160405280600381526020017f726564000000000000000000000000000000000000000000000000000000000081525081526020016040518060400160405280600681526020017f79656c6c6f77000000000000000000000000000000000000000000000000000081525081526020016040518060400160405280600481526020017f626c75650000000000000000000000000000000000000000000000000000000081525081526020016040518060400160405280600581526020017f626c61636b00000000000000000000000000000000000000000000000000000081525081526020016040518060400160405280600581526020017f677265656e00000000000000000000000000000000000000000000000000000081525081526020016040518060400160405280600481526020017f677261790000000000000000000000000000000000000000000000000000000081525081526020016040518060400160405280600681526020017f707572706c65000000000000000000000000000000000000000000000000000081525081526020016040518060400160405280600481526020017f70696e6b0000000000000000000000000000000000000000000000000000000081525081526020016040518060400160405280600681526020017f6f72616e6765000000000000000000000000000000000000000000000000000081525081526020016040518060400160405280600581526020017f62726f776e00000000000000000000000000000000000000000000000000000081525081526020016040518060400160405280600481526020017f6379616e0000000000000000000000000000000000000000000000000000000081525081526020016040518060400160405280600781526020017f6d6167656e74610000000000000000000000000000000000000000000000000081525081526020016040518060400160405280600681526020017f6d61726f6f6e000000000000000000000000000000000000000000000000000081525081526020016040518060400160405280600481526020017f6e6176790000000000000000000000000000000000000000000000000000000081525081526020016040518060400160405280600481526020017f7465616c0000000000000000000000000000000000000000000000000000000081525081526020016040518060400160405280600681526020017f76696f6c6574000000000000000000000000000000000000000000000000000081525081526020016040518060400160405280600a81526020017f617175616d6172696e650000000000000000000000000000000000000000000081525081526020016040518060400160405280600581526020017f636f72616c00000000000000000000000000000000000000000000000000000081525081526020016040518060400160405280600781526020017f667563687369610000000000000000000000000000000000000000000000000081525081526020016040518060400160405280600681526020017f696e6469676f000000000000000000000000000000000000000000000000000081525081526020016040518060400160405280600581526020017f6b68616b6900000000000000000000000000000000000000000000000000000081525081526020016040518060400160405280600381526020017f74616e000000000000000000000000000000000000000000000000000000000081525081526020016040518060400160405280600981526020017f74757271756f6973650000000000000000000000000000000000000000000000815250815250600e90601762000bde92919062000e5c565b5034801562000bec57600080fd5b506040518060400160405280601081526020017f4e46547346726f6d5072617368616e74000000000000000000000000000000008152506040518060400160405280600681526020017f5351554152450000000000000000000000000000000000000000000000000000815250816000908162000c6a9190620011c3565b50806001908162000c7c9190620011c3565b50505062000cca6040518060400160405280601e81526020017f54686973206973206d79204e465420636f6e74726163742e20576f616821000081525062000cd060201b620011cf1760201c565b6200135d565b62000d708160405160240162000ce7919062001339565b6040516020818303038152906040527f41304fac000000000000000000000000000000000000000000000000000000007bffffffffffffffffffffffffffffffffffffffffffffffffffffffff19166020820180517bffffffffffffffffffffffffffffffffffffffffffffffffffffffff838183161783525050505062000d7360201b60201c565b50565b60008151905060006a636f6e736f6c652e6c6f679050602083016000808483855afa5050505050565b82805482825590600052602060002090810192821562000de9579160200282015b8281111562000de857825182908162000dd79190620011c3565b509160200191906001019062000dbd565b5b50905062000df8919062000ebc565b5090565b82805482825590600052602060002090810192821562000e49579160200282015b8281111562000e4857825182908162000e379190620011c3565b509160200191906001019062000e1d565b5b50905062000e58919062000ebc565b5090565b82805482825590600052602060002090810192821562000ea9579160200282015b8281111562000ea857825182908162000e979190620011c3565b509160200191906001019062000e7d565b5b50905062000eb8919062000ebc565b5090565b5b8082111562000ee0576000818162000ed6919062000ee4565b5060010162000ebd565b5090565b50805462000ef29062000fb2565b6000825580601f1062000f06575062000f27565b601f01602090049060005260206000209081019062000f26919062000f2a565b5b50565b5b8082111562000f4557600081600090555060010162000f2b565b5090565b600081519050919050565b7f4e487b7100000000000000000000000000000000000000000000000000000000600052604160045260246000fd5b7f4e487b7100000000000000000000000000000000000000000000000000000000600052602260045260246000fd5b6000600282049050600182168062000fcb57607f821691505b60208210810362000fe15762000fe062000f83565b5b50919050565b60008190508160005260206000209050919050565b60006020601f8301049050919050565b600082821b905092915050565b6000600883026200104b7fffffffffffffffffffffffffffffffffffffffffffffffffffffffffffffffff826200100c565b6200105786836200100c565b95508019841693508086168417925050509392505050565b6000819050919050565b6000819050919050565b6000620010a46200109e62001098846200106f565b62001079565b6200106f565b9050919050565b6000819050919050565b620010c08362001083565b620010d8620010cf82620010ab565b84845462001019565b825550505050565b600090565b620010ef620010e0565b620010fc818484620010b5565b505050565b5b81811015620011245762001118600082620010e5565b60018101905062001102565b5050565b601f82111562001173576200113d8162000fe7565b620011488462000ffc565b8101602085101562001158578190505b62001170620011678562000ffc565b83018262001101565b50505b505050565b600082821c905092915050565b6000620011986000198460080262001178565b1980831691505092915050565b6000620011b3838362001185565b9150826002028217905092915050565b620011ce8262000f49565b67ffffffffffffffff811115620011ea57620011e962000f54565b5b620011f6825462000fb2565b6200120382828562001128565b600060209050601f8311600181146200123b576000841562001226578287015190505b620012328582620011a5565b865550620012a2565b601f1984166200124b8662000fe7565b60005b8281101562001275578489015182556001820191506020850194506020810190506200124e565b8683101562001295578489015162001291601f89168262001185565b8355505b6001600288020188555050505b505050505050565b600082825260208201905092915050565b60005b83811015620012db578082015181840152602081019050620012be565b60008484015250505050565b6000601f19601f8301169050919050565b6000620013058262000f49565b620013118185620012aa565b935062001323818560208601620012bb565b6200132e81620012e7565b840191505092915050565b60006020820190508181036000830152620013558184620012f8565b905092915050565b613f0a806200136d6000396000f3fe608060405234801561001057600080fd5b50600436106101215760003560e01c806370a08231116100ad578063b88d4fde11610071578063b88d4fde14610340578063c575757a1461035c578063c87b56dd1461038c578063de9d132f146103bc578063e985e9c5146103c657610121565b806370a082311461028857806395d89b41146102b8578063986f5be2146102d6578063a22cb465146102f4578063b187301f1461031057610121565b806323b872dd116100f457806323b872dd146101c05780632de38d68146101dc57806342842e0e1461020c578063514dc8c6146102285780636352211e1461025857610121565b806301ffc9a71461012657806306fdde0314610156578063081812fc14610174578063095ea7b3146101a4575b600080fd5b610140600480360381019061013b9190612685565b6103f6565b60405161014d91906126cd565b60405180910390f35b61015e6104d8565b60405161016b9190612778565b60405180910390f35b61018e600480360381019061018991906127d0565b61056a565b60405161019b919061283e565b60405180910390f35b6101be60048036038101906101b99190612885565b6105b0565b005b6101da60048036038101906101d591906128c5565b6106c7565b005b6101f660048036038101906101f191906127d0565b610727565b6040516102039190612778565b60405180910390f35b610226600480360381019061022191906128c5565b61081f565b005b610242600480360381019061023d91906127d0565b61083f565b60405161024f9190612778565b60405180910390f35b610272600480360381019061026d91906127d0565b610937565b60405161027f919061283e565b60405180910390f35b6102a2600480360381019061029d9190612918565b6109bd565b6040516102af9190612954565b60405180910390f35b6102c0610a74565b6040516102cd9190612778565b60405180910390f35b6102de610b06565b6040516102eb9190612954565b60405180910390f35b61030e6004803603810190610309919061299b565b610b10565b005b61032a600480360381019061032591906127d0565b610b26565b6040516103379190612778565b60405180910390f35b61035a60048036038101906103559190612b10565b610c1e565b005b610376600480360381019061037191906127d0565b610c80565b6040516103839190612778565b60405180910390f35b6103a660048036038101906103a191906127d0565b610d78565b6040516103b39190612778565b60405180910390f35b6103c4610e8a565b005b6103e060048036038101906103db9190612b93565b61113b565b6040516103ed91906126cd565b60405180910390f35b60007f80ac58cd000000000000000000000000000000000000000000000000000000007bffffffffffffffffffffffffffffffffffffffffffffffffffffffff1916827bffffffffffffffffffffffffffffffffffffffffffffffffffffffff191614806104c157507f5b5e139f000000000000000000000000000000000000000000000000000000007bffffffffffffffffffffffffffffffffffffffffffffffffffffffff1916827bffffffffffffffffffffffffffffffffffffffffffffffffffffffff1916145b806104d157506104d082611268565b5b9050919050565b6060600080546104e790612c02565b80601f016020809104026020016040519081016040528092919081815260200182805461051390612c02565b80156105605780601f1061053557610100808354040283529160200191610560565b820191906000526020600020905b81548152906001019060200180831161054357829003601f168201915b5050505050905090565b6000610575826112d2565b6004600083815260200190815260200160002060009054906101000a900473ffffffffffffffffffffffffffffffffffffffff169050919050565b60006105bb82610937565b90508073ffffffffffffffffffffffffffffffffffffffff168373ffffffffffffffffffffffffffffffffffffffff160361062b576040517f08c379a000000000000000000000000000000000000000000000000000000000815260040161062290612ca5565b60405180910390fd5b8073ffffffffffffffffffffffffffffffffffffffff1661064a61131d565b73ffffffffffffffffffffffffffffffffffffffff16148061067957506106788161067361131d565b61113b565b5b6106b8576040517f08c379a00000000000000000000000000000000000000000000000000000000081526004016106af90612d37565b60405180910390fd5b6106c28383611325565b505050565b6106d86106d261131d565b826113de565b610717576040517f08c379a000000000000000000000000000000000000000000000000000000000815260040161070e90612dc9565b60405180910390fd5b610722838383611473565b505050565b6060600061075b6107378461176c565b6040516020016107479190612e71565b60405160208183030381529060405261183a565b9050600b805490508161076e9190612ec2565b9050600b818154811061078457610783612ef3565b5b90600052602060002001805461079990612c02565b80601f01602080910402602001604051908101604052809291908181526020018280546107c590612c02565b80156108125780601f106107e757610100808354040283529160200191610812565b820191906000526020600020905b8154815290600101906020018083116107f557829003601f168201915b5050505050915050919050565b61083a83838360405180602001604052806000815250610c1e565b505050565b6060600061087361084f8461176c565b60405160200161085f9190612f6e565b60405160208183030381529060405261183a565b9050600e80549050816108869190612ec2565b9050600e818154811061089c5761089b612ef3565b5b9060005260206000200180546108b190612c02565b80601f01602080910402602001604051908101604052809291908181526020018280546108dd90612c02565b801561092a5780601f106108ff5761010080835404028352916020019161092a565b820191906000526020600020905b81548152906001019060200180831161090d57829003601f168201915b5050505050915050919050565b6000806109438361186d565b9050600073ffffffffffffffffffffffffffffffffffffffff168173ffffffffffffffffffffffffffffffffffffffff16036109b4576040517f08c379a00000000000000000000000000000000000000000000000000000000081526004016109ab90612fdc565b60405180910390fd5b80915050919050565b60008073ffffffffffffffffffffffffffffffffffffffff168273ffffffffffffffffffffffffffffffffffffffff1603610a2d576040517f08c379a0000000000000000000000000000000000000000000000000000000008152600401610a249061306e565b60405180910390fd5b600360008373ffffffffffffffffffffffffffffffffffffffff1673ffffffffffffffffffffffffffffffffffffffff168152602001908152602001600020549050919050565b606060018054610a8390612c02565b80601f0160208091040260200160405190810160405280929190818152602001828054610aaf90612c02565b8015610afc5780601f10610ad157610100808354040283529160200191610afc565b820191906000526020600020905b815481529060010190602001808311610adf57829003601f168201915b5050505050905090565b6000600854905090565b610b22610b1b61131d565b83836118aa565b5050565b60606000610b5a610b368461176c565b604051602001610b4691906130da565b60405160208183030381529060405261183a565b9050600c8054905081610b6d9190612ec2565b9050600c8181548110610b8357610b82612ef3565b5b906000526020600020018054610b9890612c02565b80601f0160208091040260200160405190810160405280929190818152602001828054610bc490612c02565b8015610c115780601f10610be657610100808354040283529160200191610c11565b820191906000526020600020905b815481529060010190602001808311610bf457829003601f168201915b5050505050915050919050565b610c2f610c2961131d565b836113de565b610c6e576040517f08c379a0000000000000000000000000000000000000000000000000000000008152600401610c6590612dc9565b60405180910390fd5b610c7a84848484611a16565b50505050565b60606000610cb4610c908461176c565b604051602001610ca09190613148565b60405160208183030381529060405261183a565b9050600d8054905081610cc79190612ec2565b9050600d8181548110610cdd57610cdc612ef3565b5b906000526020600020018054610cf290612c02565b80601f0160208091040260200160405190810160405280929190818152602001828054610d1e90612c02565b8015610d6b5780601f10610d4057610100808354040283529160200191610d6b565b820191906000526020600020905b815481529060010190602001808311610d4e57829003601f168201915b5050505050915050919050565b6060610d83826112d2565b6000600660008481526020019081526020016000208054610da390612c02565b80601f0160208091040260200160405190810160405280929190818152602001828054610dcf90612c02565b8015610e1c5780601f10610df157610100808354040283529160200191610e1c565b820191906000526020600020905b815481529060010190602001808311610dff57829003601f168201915b505050505090506000610e2d611a72565b90506000815103610e42578192505050610e85565b600082511115610e77578082604051602001610e5f92919061316a565b60405160208183030381529060405292505050610e85565b610e8084611a89565b925050505b919050565b603360085410610ecf576040517f08c379a0000000000000000000000000000000000000000000000000000000008152600401610ec6906131da565b60405180910390fd5b6000610edb6007611af1565b90506000610ee882610727565b90506000610ef583610b26565b90506000610f0284610c80565b90506000838383604051602001610f1b939291906131fa565b60405160208183030381529060405290506000610f378661083f565b90506000600982600a85604051602001610f54949392919061330f565b60405160208183030381529060405290506000610f9984610f7484611aff565b604051602001610f85929190613488565b604051602081830303815290604052611aff565b9050600081604051602001610fae9190613519565b6040516020818303038152906040529050610ffd6040518060400160405280601581526020017f0a2d2d2d2d2d2d2d2d2d2d2d2d2d2d2d2d2d2d2d2d00000000000000000000008152506111cf565b61101f604051806060016040528060258152602001613e4b6025913982611c96565b61105d6040518060400160405280601581526020017f2d2d2d2d2d2d2d2d2d2d2d2d2d2d2d2d2d2d2d2d0a00000000000000000000008152506111cf565b611067338a611d32565b6110718982611d50565b61107b6007611dbd565b6008600081548092919061108e9061356a565b91905055506110b6604051806060016040528060258152602001613e70602591398a33611dd3565b6110f76040518060400160405280601281526020017f546f74616c204e465473206d696e7465643a0000000000000000000000000000815250600854611e72565b7febb98688741ffa4c7589bf325de30cf7becb63de567842e1ccdb6cb949fdc82c338a6040516111289291906135b2565b60405180910390a1505050505050505050565b6000600560008473ffffffffffffffffffffffffffffffffffffffff1673ffffffffffffffffffffffffffffffffffffffff16815260200190815260200160002060008373ffffffffffffffffffffffffffffffffffffffff1673ffffffffffffffffffffffffffffffffffffffff16815260200190815260200160002060009054906101000a900460ff16905092915050565b611265816040516024016111e39190612778565b6040516020818303038152906040527f41304fac000000000000000000000000000000000000000000000000000000007bffffffffffffffffffffffffffffffffffffffffffffffffffffffff19166020820180517bffffffffffffffffffffffffffffffffffffffffffffffffffffffff8381831617835250505050611f0e565b50565b60007f01ffc9a7000000000000000000000000000000000000000000000000000000007bffffffffffffffffffffffffffffffffffffffffffffffffffffffff1916827bffffffffffffffffffffffffffffffffffffffffffffffffffffffff1916149050919050565b6112db81611f37565b61131a576040517f08c379a000000000000000000000000000000000000000000000000000000000815260040161131190612fdc565b60405180910390fd5b50565b600033905090565b816004600083815260200190815260200160002060006101000a81548173ffffffffffffffffffffffffffffffffffffffff021916908373ffffffffffffffffffffffffffffffffffffffff160217905550808273ffffffffffffffffffffffffffffffffffffffff1661139883610937565b73ffffffffffffffffffffffffffffffffffffffff167f8c5be1e5ebec7d5bd14f71427d1e84f3dd0314c0f7b2291e5b200ac8c7c3b92560405160405180910390a45050565b6000806113ea83610937565b90508073ffffffffffffffffffffffffffffffffffffffff168473ffffffffffffffffffffffffffffffffffffffff16148061142c575061142b818561113b565b5b8061146a57508373ffffffffffffffffffffffffffffffffffffffff166114528461056a565b73ffffffffffffffffffffffffffffffffffffffff16145b91505092915050565b8273ffffffffffffffffffffffffffffffffffffffff1661149382610937565b73ffffffffffffffffffffffffffffffffffffffff16146114e9576040517f08c379a00000000000000000000000000000000000000000000000000000000081526004016114e09061364d565b60405180910390fd5b600073ffffffffffffffffffffffffffffffffffffffff168273ffffffffffffffffffffffffffffffffffffffff1603611558576040517f08c379a000000000000000000000000000000000000000000000000000000000815260040161154f906136df565b60405180910390fd5b6115658383836001611f78565b8273ffffffffffffffffffffffffffffffffffffffff1661158582610937565b73ffffffffffffffffffffffffffffffffffffffff16146115db576040517f08c379a00000000000000000000000000000000000000000000000000000000081526004016115d29061364d565b60405180910390fd5b6004600082815260200190815260200160002060006101000a81549073ffffffffffffffffffffffffffffffffffffffff02191690556001600360008573ffffffffffffffffffffffffffffffffffffffff1673ffffffffffffffffffffffffffffffffffffffff168152602001908152602001600020600082825403925050819055506001600360008473ffffffffffffffffffffffffffffffffffffffff1673ffffffffffffffffffffffffffffffffffffffff16815260200190815260200160002060008282540192505081905550816002600083815260200190815260200160002060006101000a81548173ffffffffffffffffffffffffffffffffffffffff021916908373ffffffffffffffffffffffffffffffffffffffff160217905550808273ffffffffffffffffffffffffffffffffffffffff168473ffffffffffffffffffffffffffffffffffffffff167fddf252ad1be2c89b69c2b068fc378daa952ba7f163c4a11628f55a4df523b3ef60405160405180910390a4611767838383600161209e565b505050565b60606000600161177b846120a4565b01905060008167ffffffffffffffff81111561179a576117996129e5565b5b6040519080825280601f01601f1916602001820160405280156117cc5781602001600182028036833780820191505090505b509050600082602001820190505b60011561182f578080600190039150507f3031323334353637383961626364656600000000000000000000000000000000600a86061a8153600a858161182357611822612e93565b5b049450600085036117da575b819350505050919050565b60008160405160200161184d91906136ff565b6040516020818303038152906040528051906020012060001c9050919050565b60006002600083815260200190815260200160002060009054906101000a900473ffffffffffffffffffffffffffffffffffffffff169050919050565b8173ffffffffffffffffffffffffffffffffffffffff168373ffffffffffffffffffffffffffffffffffffffff1603611918576040517f08c379a000000000000000000000000000000000000000000000000000000000815260040161190f90613762565b60405180910390fd5b80600560008573ffffffffffffffffffffffffffffffffffffffff1673ffffffffffffffffffffffffffffffffffffffff16815260200190815260200160002060008473ffffffffffffffffffffffffffffffffffffffff1673ffffffffffffffffffffffffffffffffffffffff16815260200190815260200160002060006101000a81548160ff0219169083151502179055508173ffffffffffffffffffffffffffffffffffffffff168373ffffffffffffffffffffffffffffffffffffffff167f17307eab39ab6107e8899845ad3d59bd9653f200f220920489ca2b5937696c3183604051611a0991906126cd565b60405180910390a3505050565b611a21848484611473565b611a2d848484846121f7565b611a6c576040517f08c379a0000000000000000000000000000000000000000000000000000000008152600401611a63906137f4565b60405180910390fd5b50505050565b606060405180602001604052806000815250905090565b6060611a94826112d2565b6000611a9e611a72565b90506000815111611abe5760405180602001604052806000815250611ae9565b80611ac88461176c565b604051602001611ad992919061316a565b6040516020818303038152906040525b915050919050565b600081600001549050919050565b606060008251905060008103611b275760405180602001604052806000815250915050611c91565b60006003600283611b389190613814565b611b429190613848565b6004611b4e9190613879565b90506000602082611b5f9190613814565b67ffffffffffffffff811115611b7857611b776129e5565b5b6040519080825280601f01601f191660200182016040528015611baa5781602001600182028036833780820191505090505b5090506000604051806060016040528060408152602001613e95604091399050600181016020830160005b86811015611c4e5760038101905062ffffff818a015116603f8160121c168401518060081b905060ff603f83600c1c1686015116810190508060081b905060ff603f8360061c1686015116810190508060081b905060ff603f831686015116810190508060e01b90508084526004840193505050611bd5565b506003860660018114611c685760028114611c7857611c83565b613d3d60f01b6002830352611c83565b603d60f81b60018303525b508484525050819450505050505b919050565b611d2e8282604051602401611cac9291906138bb565b6040516020818303038152906040527f4b5c4277000000000000000000000000000000000000000000000000000000007bffffffffffffffffffffffffffffffffffffffffffffffffffffffff19166020820180517bffffffffffffffffffffffffffffffffffffffffffffffffffffffff8381831617835250505050611f0e565b5050565b611d4c82826040518060200160405280600081525061237e565b5050565b611d5982611f37565b611d98576040517f08c379a0000000000000000000000000000000000000000000000000000000008152600401611d8f90613964565b60405180910390fd5b80600660008481526020019081526020016000209081611db89190613b1b565b505050565b6001816000016000828254019250508190555050565b611e6d838383604051602401611deb93929190613bed565b6040516020818303038152906040527f1c7ec448000000000000000000000000000000000000000000000000000000007bffffffffffffffffffffffffffffffffffffffffffffffffffffffff19166020820180517bffffffffffffffffffffffffffffffffffffffffffffffffffffffff8381831617835250505050611f0e565b505050565b611f0a8282604051602401611e88929190613c2b565b6040516020818303038152906040527fb60e72cc000000000000000000000000000000000000000000000000000000007bffffffffffffffffffffffffffffffffffffffffffffffffffffffff19166020820180517bffffffffffffffffffffffffffffffffffffffffffffffffffffffff8381831617835250505050611f0e565b5050565b60008151905060006a636f6e736f6c652e6c6f679050602083016000808483855afa5050505050565b60008073ffffffffffffffffffffffffffffffffffffffff16611f598361186d565b73ffffffffffffffffffffffffffffffffffffffff1614159050919050565b600181111561209857600073ffffffffffffffffffffffffffffffffffffffff168473ffffffffffffffffffffffffffffffffffffffff161461200c5780600360008673ffffffffffffffffffffffffffffffffffffffff1673ffffffffffffffffffffffffffffffffffffffff16815260200190815260200160002060008282546120049190613c5b565b925050819055505b600073ffffffffffffffffffffffffffffffffffffffff168373ffffffffffffffffffffffffffffffffffffffff16146120975780600360008573ffffffffffffffffffffffffffffffffffffffff1673ffffffffffffffffffffffffffffffffffffffff168152602001908152602001600020600082825461208f9190613814565b925050819055505b5b50505050565b50505050565b600080600090507a184f03e93ff9f4daa797ed6e38ed64bf6a1f0100000000000000008310612102577a184f03e93ff9f4daa797ed6e38ed64bf6a1f01000000000000000083816120f8576120f7612e93565b5b0492506040810190505b6d04ee2d6d415b85acef8100000000831061213f576d04ee2d6d415b85acef8100000000838161213557612134612e93565b5b0492506020810190505b662386f26fc10000831061216e57662386f26fc10000838161216457612163612e93565b5b0492506010810190505b6305f5e1008310612197576305f5e100838161218d5761218c612e93565b5b0492506008810190505b61271083106121bc5761271083816121b2576121b1612e93565b5b0492506004810190505b606483106121df57606483816121d5576121d4612e93565b5b0492506002810190505b600a83106121ee576001810190505b80915050919050565b60006122188473ffffffffffffffffffffffffffffffffffffffff166123d9565b15612371578373ffffffffffffffffffffffffffffffffffffffff1663150b7a0261224161131d565b8786866040518563ffffffff1660e01b81526004016122639493929190613ce4565b6020604051808303816000875af192505050801561229f57506040513d601f19601f8201168201806040525081019061229c9190613d45565b60015b612321573d80600081146122cf576040519150601f19603f3d011682016040523d82523d6000602084013e6122d4565b606091505b506000815103612319576040517f08c379a0000000000000000000000000000000000000000000000000000000008152600401612310906137f4565b60405180910390fd5b805181602001fd5b63150b7a0260e01b7bffffffffffffffffffffffffffffffffffffffffffffffffffffffff1916817bffffffffffffffffffffffffffffffffffffffffffffffffffffffff191614915050612376565b600190505b949350505050565b61238883836123fc565b61239560008484846121f7565b6123d4576040517f08c379a00000000000000000000000000000000000000000000000000000000081526004016123cb906137f4565b60405180910390fd5b505050565b6000808273ffffffffffffffffffffffffffffffffffffffff163b119050919050565b600073ffffffffffffffffffffffffffffffffffffffff168273ffffffffffffffffffffffffffffffffffffffff160361246b576040517f08c379a000000000000000000000000000000000000000000000000000000000815260040161246290613dbe565b60405180910390fd5b61247481611f37565b156124b4576040517f08c379a00000000000000000000000000000000000000000000000000000000081526004016124ab90613e2a565b60405180910390fd5b6124c2600083836001611f78565b6124cb81611f37565b1561250b576040517f08c379a000000000000000000000000000000000000000000000000000000000815260040161250290613e2a565b60405180910390fd5b6001600360008473ffffffffffffffffffffffffffffffffffffffff1673ffffffffffffffffffffffffffffffffffffffff16815260200190815260200160002060008282540192505081905550816002600083815260200190815260200160002060006101000a81548173ffffffffffffffffffffffffffffffffffffffff021916908373ffffffffffffffffffffffffffffffffffffffff160217905550808273ffffffffffffffffffffffffffffffffffffffff16600073ffffffffffffffffffffffffffffffffffffffff167fddf252ad1be2c89b69c2b068fc378daa952ba7f163c4a11628f55a4df523b3ef60405160405180910390a461261560008383600161209e565b5050565b6000604051905090565b600080fd5b600080fd5b60007fffffffff0000000000000000000000000000000000000000000000000000000082169050919050565b6126628161262d565b811461266d57600080fd5b50565b60008135905061267f81612659565b92915050565b60006020828403121561269b5761269a612623565b5b60006126a984828501612670565b91505092915050565b60008115159050919050565b6126c7816126b2565b82525050565b60006020820190506126e260008301846126be565b92915050565b600081519050919050565b600082825260208201905092915050565b60005b83811015612722578082015181840152602081019050612707565b60008484015250505050565b6000601f19601f8301169050919050565b600061274a826126e8565b61275481856126f3565b9350612764818560208601612704565b61276d8161272e565b840191505092915050565b60006020820190508181036000830152612792818461273f565b905092915050565b6000819050919050565b6127ad8161279a565b81146127b857600080fd5b50565b6000813590506127ca816127a4565b92915050565b6000602082840312156127e6576127e5612623565b5b60006127f4848285016127bb565b91505092915050565b600073ffffffffffffffffffffffffffffffffffffffff82169050919050565b6000612828826127fd565b9050919050565b6128388161281d565b82525050565b6000602082019050612853600083018461282f565b92915050565b6128628161281d565b811461286d57600080fd5b50565b60008135905061287f81612859565b92915050565b6000806040838503121561289c5761289b612623565b5b60006128aa85828601612870565b92505060206128bb858286016127bb565b9150509250929050565b6000806000606084860312156128de576128dd612623565b5b60006128ec86828701612870565b93505060206128fd86828701612870565b925050604061290e868287016127bb565b9150509250925092565b60006020828403121561292e5761292d612623565b5b600061293c84828501612870565b91505092915050565b61294e8161279a565b82525050565b60006020820190506129696000830184612945565b92915050565b612978816126b2565b811461298357600080fd5b50565b6000813590506129958161296f565b92915050565b600080604083850312156129b2576129b1612623565b5b60006129c085828601612870565b92505060206129d185828601612986565b9150509250929050565b600080fd5b600080fd5b7f4e487b7100000000000000000000000000000000000000000000000000000000600052604160045260246000fd5b612a1d8261272e565b810181811067ffffffffffffffff82111715612a3c57612a3b6129e5565b5b80604052505050565b6000612a4f612619565b9050612a5b8282612a14565b919050565b600067ffffffffffffffff821115612a7b57612a7a6129e5565b5b612a848261272e565b9050602081019050919050565b82818337600083830152505050565b6000612ab3612aae84612a60565b612a45565b905082815260208101848484011115612acf57612ace6129e0565b5b612ada848285612a91565b509392505050565b600082601f830112612af757612af66129db565b5b8135612b07848260208601612aa0565b91505092915050565b60008060008060808587031215612b2a57612b29612623565b5b6000612b3887828801612870565b9450506020612b4987828801612870565b9350506040612b5a878288016127bb565b925050606085013567ffffffffffffffff811115612b7b57612b7a612628565b5b612b8787828801612ae2565b91505092959194509250565b60008060408385031215612baa57612ba9612623565b5b6000612bb885828601612870565b9250506020612bc985828601612870565b9150509250929050565b7f4e487b7100000000000000000000000000000000000000000000000000000000600052602260045260246000fd5b60006002820490506001821680612c1a57607f821691505b602082108103612c2d57612c2c612bd3565b5b50919050565b7f4552433732313a20617070726f76616c20746f2063757272656e74206f776e6560008201527f7200000000000000000000000000000000000000000000000000000000000000602082015250565b6000612c8f6021836126f3565b9150612c9a82612c33565b604082019050919050565b60006020820190508181036000830152612cbe81612c82565b9050919050565b7f4552433732313a20617070726f76652063616c6c6572206973206e6f7420746f60008201527f6b656e206f776e6572206f7220617070726f76656420666f7220616c6c000000602082015250565b6000612d21603d836126f3565b9150612d2c82612cc5565b604082019050919050565b60006020820190508181036000830152612d5081612d14565b9050919050565b7f4552433732313a2063616c6c6572206973206e6f7420746f6b656e206f776e6560008201527f72206f7220617070726f76656400000000000000000000000000000000000000602082015250565b6000612db3602d836126f3565b9150612dbe82612d57565b604082019050919050565b60006020820190508181036000830152612de281612da6565b9050919050565b600081905092915050565b7f46495253545f574f524400000000000000000000000000000000000000000000600082015250565b6000612e2a600a83612de9565b9150612e3582612df4565b600a82019050919050565b6000612e4b826126e8565b612e558185612de9565b9350612e65818560208601612704565b80840191505092915050565b6000612e7c82612e1d565b9150612e888284612e40565b915081905092915050565b7f4e487b7100000000000000000000000000000000000000000000000000000000600052601260045260246000fd5b6000612ecd8261279a565b9150612ed88361279a565b925082612ee857612ee7612e93565b5b828206905092915050565b7f4e487b7100000000000000000000000000000000000000000000000000000000600052603260045260246000fd5b7f434f4c4f52000000000000000000000000000000000000000000000000000000600082015250565b6000612f58600583612de9565b9150612f6382612f22565b600582019050919050565b6000612f7982612f4b565b9150612f858284612e40565b915081905092915050565b7f4552433732313a20696e76616c696420746f6b656e2049440000000000000000600082015250565b6000612fc66018836126f3565b9150612fd182612f90565b602082019050919050565b60006020820190508181036000830152612ff581612fb9565b9050919050565b7f4552433732313a2061646472657373207a65726f206973206e6f74206120766160008201527f6c6964206f776e65720000000000000000000000000000000000000000000000602082015250565b60006130586029836126f3565b915061306382612ffc565b604082019050919050565b600060208201905081810360008301526130878161304b565b9050919050565b7f5345434f4e445f574f5244000000000000000000000000000000000000000000600082015250565b60006130c4600b83612de9565b91506130cf8261308e565b600b82019050919050565b60006130e5826130b7565b91506130f18284612e40565b915081905092915050565b7f54484952445f574f524400000000000000000000000000000000000000000000600082015250565b6000613132600a83612de9565b915061313d826130fc565b600a82019050919050565b600061315382613125565b915061315f8284612e40565b915081905092915050565b60006131768285612e40565b91506131828284612e40565b91508190509392505050565b7f4e4654206d696e746564206c696d697420726561636865640000000000000000600082015250565b60006131c46018836126f3565b91506131cf8261318e565b602082019050919050565b600060208201905081810360008301526131f3816131b7565b9050919050565b60006132068286612e40565b91506132128285612e40565b915061321e8284612e40565b9150819050949350505050565b60008190508160005260206000209050919050565b6000815461324d81612c02565b6132578186612de9565b945060018216600081146132725760018114613287576132ba565b60ff19831686528115158202860193506132ba565b6132908561322b565b60005b838110156132b257815481890152600182019150602081019050613293565b838801955050505b50505092915050565b7f3c2f746578743e3c2f7376673e00000000000000000000000000000000000000600082015250565b60006132f9600d83612de9565b9150613304826132c3565b600d82019050919050565b600061331b8287613240565b91506133278286612e40565b91506133338285613240565b915061333f8284612e40565b915061334a826132ec565b915081905095945050505050565b7f7b226e616d65223a202200000000000000000000000000000000000000000000600082015250565b600061338e600a83612de9565b915061339982613358565b600a82019050919050565b7f222c20226465736372697074696f6e223a202254687320666972737420636f6c60008201527f6c656374696f6e206f66204e465473222c2022696d616765223a20226461746160208201527f3a696d6167652f7376672b786d6c3b6261736536342c00000000000000000000604082015250565b6000613426605683612de9565b9150613431826133a4565b605682019050919050565b7f227d000000000000000000000000000000000000000000000000000000000000600082015250565b6000613472600283612de9565b915061347d8261343c565b600282019050919050565b600061349382613381565b915061349f8285612e40565b91506134aa82613419565b91506134b68284612e40565b91506134c182613465565b91508190509392505050565b7f646174613a6170706c69636174696f6e2f6a736f6e3b6261736536342c000000600082015250565b6000613503601d83612de9565b915061350e826134cd565b601d82019050919050565b6000613524826134f6565b91506135308284612e40565b915081905092915050565b7f4e487b7100000000000000000000000000000000000000000000000000000000600052601160045260246000fd5b60006135758261279a565b91507fffffffffffffffffffffffffffffffffffffffffffffffffffffffffffffffff82036135a7576135a661353b565b5b600182019050919050565b60006040820190506135c7600083018561282f565b6135d46020830184612945565b9392505050565b7f4552433732313a207472616e736665722066726f6d20696e636f72726563742060008201527f6f776e6572000000000000000000000000000000000000000000000000000000602082015250565b60006136376025836126f3565b9150613642826135db565b604082019050919050565b600060208201905081810360008301526136668161362a565b9050919050565b7f4552433732313a207472616e7366657220746f20746865207a65726f2061646460008201527f7265737300000000000000000000000000000000000000000000000000000000602082015250565b60006136c96024836126f3565b91506136d48261366d565b604082019050919050565b600060208201905081810360008301526136f8816136bc565b9050919050565b600061370b8284612e40565b915081905092915050565b7f4552433732313a20617070726f766520746f2063616c6c657200000000000000600082015250565b600061374c6019836126f3565b915061375782613716565b602082019050919050565b6000602082019050818103600083015261377b8161373f565b9050919050565b7f4552433732313a207472616e7366657220746f206e6f6e20455243373231526560008201527f63656976657220696d706c656d656e7465720000000000000000000000000000602082015250565b60006137de6032836126f3565b91506137e982613782565b604082019050919050565b6000602082019050818103600083015261380d816137d1565b9050919050565b600061381f8261279a565b915061382a8361279a565b92508282019050808211156138425761384161353b565b5b92915050565b60006138538261279a565b915061385e8361279a565b92508261386e5761386d612e93565b5b828204905092915050565b60006138848261279a565b915061388f8361279a565b925082820261389d8161279a565b915082820484148315176138b4576138b361353b565b5b5092915050565b600060408201905081810360008301526138d5818561273f565b905081810360208301526138e9818461273f565b90509392505050565b7f45524337323155524953746f726167653a2055524920736574206f66206e6f6e60008201527f6578697374656e7420746f6b656e000000000000000000000000000000000000602082015250565b600061394e602e836126f3565b9150613959826138f2565b604082019050919050565b6000602082019050818103600083015261397d81613941565b9050919050565b60006020601f8301049050919050565b600082821b905092915050565b6000600883026139d17fffffffffffffffffffffffffffffffffffffffffffffffffffffffffffffffff82613994565b6139db8683613994565b95508019841693508086168417925050509392505050565b6000819050919050565b6000613a18613a13613a0e8461279a565b6139f3565b61279a565b9050919050565b6000819050919050565b613a32836139fd565b613a46613a3e82613a1f565b8484546139a1565b825550505050565b600090565b613a5b613a4e565b613a66818484613a29565b505050565b5b81811015613a8a57613a7f600082613a53565b600181019050613a6c565b5050565b601f821115613acf57613aa08161322b565b613aa984613984565b81016020851015613ab8578190505b613acc613ac485613984565b830182613a6b565b50505b505050565b600082821c905092915050565b6000613af260001984600802613ad4565b1980831691505092915050565b6000613b0b8383613ae1565b9150826002028217905092915050565b613b24826126e8565b67ffffffffffffffff811115613b3d57613b3c6129e5565b5b613b478254612c02565b613b52828285613a8e565b600060209050601f831160018114613b855760008415613b73578287015190505b613b7d8582613aff565b865550613be5565b601f198416613b938661322b565b60005b82811015613bbb57848901518255600182019150602085019450602081019050613b96565b86831015613bd85784890151613bd4601f891682613ae1565b8355505b6001600288020188555050505b505050505050565b60006060820190508181036000830152613c07818661273f565b9050613c166020830185612945565b613c23604083018461282f565b949350505050565b60006040820190508181036000830152613c45818561273f565b9050613c546020830184612945565b9392505050565b6000613c668261279a565b9150613c718361279a565b9250828203905081811115613c8957613c8861353b565b5b92915050565b600081519050919050565b600082825260208201905092915050565b6000613cb682613c8f565b613cc08185613c9a565b9350613cd0818560208601612704565b613cd98161272e565b840191505092915050565b6000608082019050613cf9600083018761282f565b613d06602083018661282f565b613d136040830185612945565b8181036060830152613d258184613cab565b905095945050505050565b600081519050613d3f81612659565b92915050565b600060208284031215613d5b57613d5a612623565b5b6000613d6984828501613d30565b91505092915050565b7f4552433732313a206d696e7420746f20746865207a65726f2061646472657373600082015250565b6000613da86020836126f3565b9150613db382613d72565b602082019050919050565b60006020820190508181036000830152613dd781613d9b565b9050919050565b7f4552433732313a20746f6b656e20616c7265616479206d696e74656400000000600082015250565b6000613e14601c836126f3565b9150613e1f82613dde565b602082019050919050565b60006020820190508181036000830152613e4381613e07565b905091905056fe68747470733a2f2f6e6674707265766965772e30786465762e636f6465732f3f636f64653d416e204e465420772f20494420257320686173206265656e206d696e74656420746f2025734142434445464748494a4b4c4d4e4f505152535455565758595a6162636465666768696a6b6c6d6e6f707172737475767778797a303132333435363738392b2fa264697066735822122086d405a8dc2fe0de094d3fcf267081831d908110b60ff6d68d22d0ed77e7e30464736f6c634300081100333c73766720786d6c6e733d27687474703a2f2f7777772e77332e6f72672f323030302f73766727207072657365727665417370656374526174696f3d27784d696e594d696e206d656574272076696577426f783d273020302033353020333530273e3c7374796c653e2e62617365207b2066696c6c3a2077686974653b20666f6e742d66616d696c793a2073657269663b20666f6e742d73697a653a20323470783b207d3c2f7374796c653e3c726563742077696474683d273130302527206865696768743d2731303025272066696c6c3d27272f3e3c7465787420783d273530252720793d273530252720636c6173733d27626173652720646f6d696e616e742d626173656c696e653d276d6964646c652720746578742d616e63686f723d276d6964646c65273e",
	"linkReferences": {},
	"deployedLinkReferences": {}
}